{
  "_format": "hh-sol-artifact-1",
  "contractName": "RoboPunksNFT",
  "sourceName": "contracts/RoboPunksNFT.sol",
  "abi": [
    {
      "inputs": [],
      "stateMutability": "payable",
      "type": "constructor"
    },
    {
      "anonymous": false,
      "inputs": [
        {
          "indexed": true,
          "internalType": "address",
          "name": "owner",
          "type": "address"
        },
        {
          "indexed": true,
          "internalType": "address",
          "name": "approved",
          "type": "address"
        },
        {
          "indexed": true,
          "internalType": "uint256",
          "name": "tokenId",
          "type": "uint256"
        }
      ],
      "name": "Approval",
      "type": "event"
    },
    {
      "anonymous": false,
      "inputs": [
        {
          "indexed": true,
          "internalType": "address",
          "name": "owner",
          "type": "address"
        },
        {
          "indexed": true,
          "internalType": "address",
          "name": "operator",
          "type": "address"
        },
        {
          "indexed": false,
          "internalType": "bool",
          "name": "approved",
          "type": "bool"
        }
      ],
      "name": "ApprovalForAll",
      "type": "event"
    },
    {
      "anonymous": false,
      "inputs": [
        {
          "indexed": true,
          "internalType": "address",
          "name": "previousOwner",
          "type": "address"
        },
        {
          "indexed": true,
          "internalType": "address",
          "name": "newOwner",
          "type": "address"
        }
      ],
      "name": "OwnershipTransferred",
      "type": "event"
    },
    {
      "anonymous": false,
      "inputs": [
        {
          "indexed": true,
          "internalType": "address",
          "name": "from",
          "type": "address"
        },
        {
          "indexed": true,
          "internalType": "address",
          "name": "to",
          "type": "address"
        },
        {
          "indexed": true,
          "internalType": "uint256",
          "name": "tokenId",
          "type": "uint256"
        }
      ],
      "name": "Transfer",
      "type": "event"
    },
    {
      "inputs": [
        {
          "internalType": "address",
          "name": "to",
          "type": "address"
        },
        {
          "internalType": "uint256",
          "name": "tokenId",
          "type": "uint256"
        }
      ],
      "name": "approve",
      "outputs": [],
      "stateMutability": "nonpayable",
      "type": "function"
    },
    {
      "inputs": [
        {
          "internalType": "address",
          "name": "owner",
          "type": "address"
        }
      ],
      "name": "balanceOf",
      "outputs": [
        {
          "internalType": "uint256",
          "name": "",
          "type": "uint256"
        }
      ],
      "stateMutability": "view",
      "type": "function"
    },
    {
      "inputs": [
        {
          "internalType": "uint256",
          "name": "tokenId",
          "type": "uint256"
        }
      ],
      "name": "getApproved",
      "outputs": [
        {
          "internalType": "address",
          "name": "",
          "type": "address"
        }
      ],
      "stateMutability": "view",
      "type": "function"
    },
    {
      "inputs": [
        {
          "internalType": "address",
          "name": "owner",
          "type": "address"
        },
        {
          "internalType": "address",
          "name": "operator",
          "type": "address"
        }
      ],
      "name": "isApprovedForAll",
      "outputs": [
        {
          "internalType": "bool",
          "name": "",
          "type": "bool"
        }
      ],
      "stateMutability": "view",
      "type": "function"
    },
    {
      "inputs": [],
      "name": "isPublicMintEnabled",
      "outputs": [
        {
          "internalType": "bool",
          "name": "",
          "type": "bool"
        }
      ],
      "stateMutability": "view",
      "type": "function"
    },
    {
      "inputs": [],
      "name": "maxPerWallet",
      "outputs": [
        {
          "internalType": "uint256",
          "name": "",
          "type": "uint256"
        }
      ],
      "stateMutability": "view",
      "type": "function"
    },
    {
      "inputs": [],
      "name": "maxSupply",
      "outputs": [
        {
          "internalType": "uint256",
          "name": "",
          "type": "uint256"
        }
      ],
      "stateMutability": "view",
      "type": "function"
    },
    {
      "inputs": [
        {
          "internalType": "uint256",
          "name": "quantity_",
          "type": "uint256"
        }
      ],
      "name": "mint",
      "outputs": [],
      "stateMutability": "payable",
      "type": "function"
    },
    {
      "inputs": [],
      "name": "mintPrice",
      "outputs": [
        {
          "internalType": "uint256",
          "name": "",
          "type": "uint256"
        }
      ],
      "stateMutability": "view",
      "type": "function"
    },
    {
      "inputs": [],
      "name": "name",
      "outputs": [
        {
          "internalType": "string",
          "name": "",
          "type": "string"
        }
      ],
      "stateMutability": "view",
      "type": "function"
    },
    {
      "inputs": [],
      "name": "owner",
      "outputs": [
        {
          "internalType": "address",
          "name": "",
          "type": "address"
        }
      ],
      "stateMutability": "view",
      "type": "function"
    },
    {
      "inputs": [
        {
          "internalType": "uint256",
          "name": "tokenId",
          "type": "uint256"
        }
      ],
      "name": "ownerOf",
      "outputs": [
        {
          "internalType": "address",
          "name": "",
          "type": "address"
        }
      ],
      "stateMutability": "view",
      "type": "function"
    },
    {
      "inputs": [],
      "name": "renounceOwnership",
      "outputs": [],
      "stateMutability": "nonpayable",
      "type": "function"
    },
    {
      "inputs": [
        {
          "internalType": "address",
          "name": "from",
          "type": "address"
        },
        {
          "internalType": "address",
          "name": "to",
          "type": "address"
        },
        {
          "internalType": "uint256",
          "name": "tokenId",
          "type": "uint256"
        }
      ],
      "name": "safeTransferFrom",
      "outputs": [],
      "stateMutability": "nonpayable",
      "type": "function"
    },
    {
      "inputs": [
        {
          "internalType": "address",
          "name": "from",
          "type": "address"
        },
        {
          "internalType": "address",
          "name": "to",
          "type": "address"
        },
        {
          "internalType": "uint256",
          "name": "tokenId",
          "type": "uint256"
        },
        {
          "internalType": "bytes",
          "name": "_data",
          "type": "bytes"
        }
      ],
      "name": "safeTransferFrom",
      "outputs": [],
      "stateMutability": "nonpayable",
      "type": "function"
    },
    {
      "inputs": [
        {
          "internalType": "address",
          "name": "operator",
          "type": "address"
        },
        {
          "internalType": "bool",
          "name": "approved",
          "type": "bool"
        }
      ],
      "name": "setApprovalForAll",
      "outputs": [],
      "stateMutability": "nonpayable",
      "type": "function"
    },
    {
      "inputs": [
        {
          "internalType": "string",
          "name": "baseTokenUri_",
          "type": "string"
        }
      ],
      "name": "setBaseTokenUri",
      "outputs": [],
      "stateMutability": "nonpayable",
      "type": "function"
    },
    {
      "inputs": [
        {
          "internalType": "bool",
          "name": "isPublicMintEnabled_",
          "type": "bool"
        }
      ],
      "name": "setIsPublicMintEnabled",
      "outputs": [],
      "stateMutability": "nonpayable",
      "type": "function"
    },
    {
      "inputs": [
        {
          "internalType": "bytes4",
          "name": "interfaceId",
          "type": "bytes4"
        }
      ],
      "name": "supportsInterface",
      "outputs": [
        {
          "internalType": "bool",
          "name": "",
          "type": "bool"
        }
      ],
      "stateMutability": "view",
      "type": "function"
    },
    {
      "inputs": [],
      "name": "symbol",
      "outputs": [
        {
          "internalType": "string",
          "name": "",
          "type": "string"
        }
      ],
      "stateMutability": "view",
      "type": "function"
    },
    {
      "inputs": [
        {
          "internalType": "uint256",
          "name": "tokenId_",
          "type": "uint256"
        }
      ],
      "name": "tokenURI",
      "outputs": [
        {
          "internalType": "string",
          "name": "",
          "type": "string"
        }
      ],
      "stateMutability": "view",
      "type": "function"
    },
    {
      "inputs": [],
      "name": "totalSupply",
      "outputs": [
        {
          "internalType": "uint256",
          "name": "",
          "type": "uint256"
        }
      ],
      "stateMutability": "view",
      "type": "function"
    },
    {
      "inputs": [
        {
          "internalType": "address",
          "name": "from",
          "type": "address"
        },
        {
          "internalType": "address",
          "name": "to",
          "type": "address"
        },
        {
          "internalType": "uint256",
          "name": "tokenId",
          "type": "uint256"
        }
      ],
      "name": "transferFrom",
      "outputs": [],
      "stateMutability": "nonpayable",
      "type": "function"
    },
    {
      "inputs": [
        {
          "internalType": "address",
          "name": "newOwner",
          "type": "address"
        }
      ],
      "name": "transferOwnership",
      "outputs": [],
      "stateMutability": "nonpayable",
      "type": "function"
    },
    {
      "inputs": [
        {
          "internalType": "address",
          "name": "",
          "type": "address"
        }
      ],
      "name": "walletMints",
      "outputs": [
        {
          "internalType": "uint256",
          "name": "",
          "type": "uint256"
        }
      ],
      "stateMutability": "view",
      "type": "function"
    },
    {
      "inputs": [],
      "name": "withdraw",
      "outputs": [],
      "stateMutability": "nonpayable",
      "type": "function"
    },
    {
      "inputs": [],
      "name": "withdrawWallet",
      "outputs": [
        {
          "internalType": "address payable",
          "name": "",
          "type": "address"
        }
      ],
      "stateMutability": "view",
      "type": "function"
    }
  ],
  "bytecode": "0x60806040526040518060400160405280600981526020017f526f626f50756e6b7300000000000000000000000000000000000000000000008152506040518060400160405280600281526020017f5250000000000000000000000000000000000000000000000000000000000000815250816000908051906020019062000088929190620001bf565b508060019080519060200190620000a1929190620001bf565b505050620000c4620000b8620000f160201b60201c565b620000f960201b60201c565b66470de4df82000060078190555060006008819055506103e86009819055506003600a81905550620002d4565b600033905090565b6000600660009054906101000a900473ffffffffffffffffffffffffffffffffffffffff16905081600660006101000a81548173ffffffffffffffffffffffffffffffffffffffff021916908373ffffffffffffffffffffffffffffffffffffffff1602179055508173ffffffffffffffffffffffffffffffffffffffff168173ffffffffffffffffffffffffffffffffffffffff167f8be0079c531659141344cd1fd0a4f28419497f9722a3daafe3b4186f6b6457e060405160405180910390a35050565b828054620001cd906200026f565b90600052602060002090601f016020900481019282620001f157600085556200023d565b82601f106200020c57805160ff19168380011785556200023d565b828001600101855582156200023d579182015b828111156200023c5782518255916020019190600101906200021f565b5b5090506200024c919062000250565b5090565b5b808211156200026b57600081600090555060010162000251565b5090565b600060028204905060018216806200028857607f821691505b602082108114156200029f576200029e620002a5565b5b50919050565b7f4e487b7100000000000000000000000000000000000000000000000000000000600052602260045260246000fd5b61379180620002e46000396000f3fe60806040526004361061019c5760003560e01c806370a08231116100ec578063a22cb4651161008a578063d5abeb0111610064578063d5abeb0114610593578063e985e9c5146105be578063f0293fd3146105fb578063f2fde38b146106385761019c565b8063a22cb46514610504578063b88d4fde1461052d578063c87b56dd146105565761019c565b80638da5cb5b116100c65780638da5cb5b1461046957806395652cfa1461049457806395d89b41146104bd578063a0712d68146104e85761019c565b806370a08231146103ea578063715018a61461042757806385d178f41461043e5761019c565b80632373ac221161015957806342842e0e1161013357806342842e0e1461032e578063453c2310146103575780636352211e146103825780636817c76c146103bf5761019c565b80632373ac22146102c557806323b872dd146102ee5780633ccfd60b146103175761019c565b80630116bc2d146101a157806301ffc9a7146101cc57806306fdde0314610209578063081812fc14610234578063095ea7b31461027157806318160ddd1461029a575b600080fd5b3480156101ad57600080fd5b506101b6610661565b6040516101c39190612a9c565b60405180910390f35b3480156101d857600080fd5b506101f360048036038101906101ee9190612493565b610674565b6040516102009190612a9c565b60405180910390f35b34801561021557600080fd5b5061021e610756565b60405161022b9190612ab7565b60405180910390f35b34801561024057600080fd5b5061025b6004803603810190610256919061252a565b6107e8565b6040516102689190612a1a565b60405180910390f35b34801561027d57600080fd5b506102986004803603810190610293919061242e565b61086d565b005b3480156102a657600080fd5b506102af610985565b6040516102bc9190612d79565b60405180910390f35b3480156102d157600080fd5b506102ec60048036038101906102e7919061246a565b61098b565b005b3480156102fa57600080fd5b5061031560048036038101906103109190612328565b610a24565b005b34801561032357600080fd5b5061032c610a84565b005b34801561033a57600080fd5b5061035560048036038101906103509190612328565b610bd1565b005b34801561036357600080fd5b5061036c610bf1565b6040516103799190612d79565b60405180910390f35b34801561038e57600080fd5b506103a960048036038101906103a4919061252a565b610bf7565b6040516103b69190612a1a565b60405180910390f35b3480156103cb57600080fd5b506103d4610ca9565b6040516103e19190612d79565b60405180910390f35b3480156103f657600080fd5b50610411600480360381019061040c91906122c3565b610caf565b60405161041e9190612d79565b60405180910390f35b34801561043357600080fd5b5061043c610d67565b005b34801561044a57600080fd5b50610453610def565b6040516104609190612a35565b60405180910390f35b34801561047557600080fd5b5061047e610e15565b60405161048b9190612a1a565b60405180910390f35b3480156104a057600080fd5b506104bb60048036038101906104b691906124e5565b610e3f565b005b3480156104c957600080fd5b506104d2610ed1565b6040516104df9190612ab7565b60405180910390f35b61050260048036038101906104fd919061252a565b610f63565b005b34801561051057600080fd5b5061052b600480360381019061052691906123f2565b611138565b005b34801561053957600080fd5b50610554600480360381019061054f9190612377565b61114e565b005b34801561056257600080fd5b5061057d6004803603810190610578919061252a565b6111b0565b60405161058a9190612ab7565b60405180910390f35b34801561059f57600080fd5b506105a861122c565b6040516105b59190612d79565b60405180910390f35b3480156105ca57600080fd5b506105e560048036038101906105e091906122ec565b611232565b6040516105f29190612a9c565b60405180910390f35b34801561060757600080fd5b50610622600480360381019061061d91906122c3565b6112c6565b60405161062f9190612d79565b60405180910390f35b34801561064457600080fd5b5061065f600480360381019061065a91906122c3565b6112de565b005b600b60009054906101000a900460ff1681565b60007f80ac58cd000000000000000000000000000000000000000000000000000000007bffffffffffffffffffffffffffffffffffffffffffffffffffffffff1916827bffffffffffffffffffffffffffffffffffffffffffffffffffffffff1916148061073f57507f5b5e139f000000000000000000000000000000000000000000000000000000007bffffffffffffffffffffffffffffffffffffffffffffffffffffffff1916827bffffffffffffffffffffffffffffffffffffffffffffffffffffffff1916145b8061074f575061074e826113d6565b5b9050919050565b6060600080546107659061302a565b80601f01602080910402602001604051908101604052809291908181526020018280546107919061302a565b80156107de5780601f106107b3576101008083540402835291602001916107de565b820191906000526020600020905b8154815290600101906020018083116107c157829003601f168201915b5050505050905090565b60006107f382611440565b610832576040517f08c379a000000000000000000000000000000000000000000000000000000000815260040161082990612cb9565b60405180910390fd5b6004600083815260200190815260200160002060009054906101000a900473ffffffffffffffffffffffffffffffffffffffff169050919050565b600061087882610bf7565b90508073ffffffffffffffffffffffffffffffffffffffff168373ffffffffffffffffffffffffffffffffffffffff1614156108e9576040517f08c379a00000000000000000000000000000000000000000000000000000000081526004016108e090612d39565b60405180910390fd5b8073ffffffffffffffffffffffffffffffffffffffff166109086114ac565b73ffffffffffffffffffffffffffffffffffffffff1614806109375750610936816109316114ac565b611232565b5b610976576040517f08c379a000000000000000000000000000000000000000000000000000000000815260040161096d90612c39565b60405180910390fd5b61098083836114b4565b505050565b60085481565b6109936114ac565b73ffffffffffffffffffffffffffffffffffffffff166109b1610e15565b73ffffffffffffffffffffffffffffffffffffffff1614610a07576040517f08c379a00000000000000000000000000000000000000000000000000000000081526004016109fe90612cf9565b60405180910390fd5b80600b60006101000a81548160ff02191690831515021790555050565b610a35610a2f6114ac565b8261156d565b610a74576040517f08c379a0000000000000000000000000000000000000000000000000000000008152600401610a6b90612d59565b60405180910390fd5b610a7f83838361164b565b505050565b610a8c6114ac565b73ffffffffffffffffffffffffffffffffffffffff16610aaa610e15565b73ffffffffffffffffffffffffffffffffffffffff1614610b00576040517f08c379a0000000000000000000000000000000000000000000000000000000008152600401610af790612cf9565b60405180910390fd5b6000600d60009054906101000a900473ffffffffffffffffffffffffffffffffffffffff1673ffffffffffffffffffffffffffffffffffffffff1647604051610b4890612a05565b60006040518083038185875af1925050503d8060008114610b85576040519150601f19603f3d011682016040523d82523d6000602084013e610b8a565b606091505b5050905080610bce576040517f08c379a0000000000000000000000000000000000000000000000000000000008152600401610bc590612af9565b60405180910390fd5b50565b610bec8383836040518060200160405280600081525061114e565b505050565b600a5481565b6000806002600084815260200190815260200160002060009054906101000a900473ffffffffffffffffffffffffffffffffffffffff169050600073ffffffffffffffffffffffffffffffffffffffff168173ffffffffffffffffffffffffffffffffffffffff161415610ca0576040517f08c379a0000000000000000000000000000000000000000000000000000000008152600401610c9790612c79565b60405180910390fd5b80915050919050565b60075481565b60008073ffffffffffffffffffffffffffffffffffffffff168273ffffffffffffffffffffffffffffffffffffffff161415610d20576040517f08c379a0000000000000000000000000000000000000000000000000000000008152600401610d1790612c59565b60405180910390fd5b600360008373ffffffffffffffffffffffffffffffffffffffff1673ffffffffffffffffffffffffffffffffffffffff168152602001908152602001600020549050919050565b610d6f6114ac565b73ffffffffffffffffffffffffffffffffffffffff16610d8d610e15565b73ffffffffffffffffffffffffffffffffffffffff1614610de3576040517f08c379a0000000000000000000000000000000000000000000000000000000008152600401610dda90612cf9565b60405180910390fd5b610ded60006118b2565b565b600d60009054906101000a900473ffffffffffffffffffffffffffffffffffffffff1681565b6000600660009054906101000a900473ffffffffffffffffffffffffffffffffffffffff16905090565b610e476114ac565b73ffffffffffffffffffffffffffffffffffffffff16610e65610e15565b73ffffffffffffffffffffffffffffffffffffffff1614610ebb576040517f08c379a0000000000000000000000000000000000000000000000000000000008152600401610eb290612cf9565b60405180910390fd5b8181600c9190610ecc929190612105565b505050565b606060018054610ee09061302a565b80601f0160208091040260200160405190810160405280929190818152602001828054610f0c9061302a565b8015610f595780601f10610f2e57610100808354040283529160200191610f59565b820191906000526020600020905b815481529060010190602001808311610f3c57829003601f168201915b5050505050905090565b600b60009054906101000a900460ff16610fb2576040517f08c379a0000000000000000000000000000000000000000000000000000000008152600401610fa990612b39565b60405180910390fd5b60075481610fc09190612ed4565b3414611001576040517f08c379a0000000000000000000000000000000000000000000000000000000008152600401610ff890612ad9565b60405180910390fd5b600954816008546110129190612e4d565b10611052576040517f08c379a000000000000000000000000000000000000000000000000000000000815260040161104990612c19565b60405180910390fd5b600a5481600e60003373ffffffffffffffffffffffffffffffffffffffff1673ffffffffffffffffffffffffffffffffffffffff168152602001908152602001600020546110a09190612e4d565b106110e0576040517f08c379a00000000000000000000000000000000000000000000000000000000081526004016110d790612cd9565b60405180910390fd5b60005b8181101561113457600060016008546110fc9190612e4d565b9050600860008154809291906111119061308d565b91905055506111203382611978565b50808061112c9061308d565b9150506110e3565b5050565b61114a6111436114ac565b8383611996565b5050565b61115f6111596114ac565b8361156d565b61119e576040517f08c379a000000000000000000000000000000000000000000000000000000000815260040161119590612d59565b60405180910390fd5b6111aa84848484611b03565b50505050565b60606111bb82611440565b6111fa576040517f08c379a00000000000000000000000000000000000000000000000000000000081526004016111f190612d19565b60405180910390fd5b600c61120583611b5f565b6040516020016112169291906129d6565b6040516020818303038152906040529050919050565b60095481565b6000600560008473ffffffffffffffffffffffffffffffffffffffff1673ffffffffffffffffffffffffffffffffffffffff16815260200190815260200160002060008373ffffffffffffffffffffffffffffffffffffffff1673ffffffffffffffffffffffffffffffffffffffff16815260200190815260200160002060009054906101000a900460ff16905092915050565b600e6020528060005260406000206000915090505481565b6112e66114ac565b73ffffffffffffffffffffffffffffffffffffffff16611304610e15565b73ffffffffffffffffffffffffffffffffffffffff161461135a576040517f08c379a000000000000000000000000000000000000000000000000000000000815260040161135190612cf9565b60405180910390fd5b600073ffffffffffffffffffffffffffffffffffffffff168173ffffffffffffffffffffffffffffffffffffffff1614156113ca576040517f08c379a00000000000000000000000000000000000000000000000000000000081526004016113c190612b59565b60405180910390fd5b6113d3816118b2565b50565b60007f01ffc9a7000000000000000000000000000000000000000000000000000000007bffffffffffffffffffffffffffffffffffffffffffffffffffffffff1916827bffffffffffffffffffffffffffffffffffffffffffffffffffffffff1916149050919050565b60008073ffffffffffffffffffffffffffffffffffffffff166002600084815260200190815260200160002060009054906101000a900473ffffffffffffffffffffffffffffffffffffffff1673ffffffffffffffffffffffffffffffffffffffff1614159050919050565b600033905090565b816004600083815260200190815260200160002060006101000a81548173ffffffffffffffffffffffffffffffffffffffff021916908373ffffffffffffffffffffffffffffffffffffffff160217905550808273ffffffffffffffffffffffffffffffffffffffff1661152783610bf7565b73ffffffffffffffffffffffffffffffffffffffff167f8c5be1e5ebec7d5bd14f71427d1e84f3dd0314c0f7b2291e5b200ac8c7c3b92560405160405180910390a45050565b600061157882611440565b6115b7576040517f08c379a00000000000000000000000000000000000000000000000000000000081526004016115ae90612bf9565b60405180910390fd5b60006115c283610bf7565b90508073ffffffffffffffffffffffffffffffffffffffff168473ffffffffffffffffffffffffffffffffffffffff16148061160457506116038185611232565b5b8061164257508373ffffffffffffffffffffffffffffffffffffffff1661162a846107e8565b73ffffffffffffffffffffffffffffffffffffffff16145b91505092915050565b8273ffffffffffffffffffffffffffffffffffffffff1661166b82610bf7565b73ffffffffffffffffffffffffffffffffffffffff16146116c1576040517f08c379a00000000000000000000000000000000000000000000000000000000081526004016116b890612b79565b60405180910390fd5b600073ffffffffffffffffffffffffffffffffffffffff168273ffffffffffffffffffffffffffffffffffffffff161415611731576040517f08c379a000000000000000000000000000000000000000000000000000000000815260040161172890612bb9565b60405180910390fd5b61173c838383611d0c565b6117476000826114b4565b6001600360008573ffffffffffffffffffffffffffffffffffffffff1673ffffffffffffffffffffffffffffffffffffffff16815260200190815260200160002060008282546117979190612f2e565b925050819055506001600360008473ffffffffffffffffffffffffffffffffffffffff1673ffffffffffffffffffffffffffffffffffffffff16815260200190815260200160002060008282546117ee9190612e4d565b92505081905550816002600083815260200190815260200160002060006101000a81548173ffffffffffffffffffffffffffffffffffffffff021916908373ffffffffffffffffffffffffffffffffffffffff160217905550808273ffffffffffffffffffffffffffffffffffffffff168473ffffffffffffffffffffffffffffffffffffffff167fddf252ad1be2c89b69c2b068fc378daa952ba7f163c4a11628f55a4df523b3ef60405160405180910390a46118ad838383611d11565b505050565b6000600660009054906101000a900473ffffffffffffffffffffffffffffffffffffffff16905081600660006101000a81548173ffffffffffffffffffffffffffffffffffffffff021916908373ffffffffffffffffffffffffffffffffffffffff1602179055508173ffffffffffffffffffffffffffffffffffffffff168173ffffffffffffffffffffffffffffffffffffffff167f8be0079c531659141344cd1fd0a4f28419497f9722a3daafe3b4186f6b6457e060405160405180910390a35050565b611992828260405180602001604052806000815250611d16565b5050565b8173ffffffffffffffffffffffffffffffffffffffff168373ffffffffffffffffffffffffffffffffffffffff161415611a05576040517f08c379a00000000000000000000000000000000000000000000000000000000081526004016119fc90612bd9565b60405180910390fd5b80600560008573ffffffffffffffffffffffffffffffffffffffff1673ffffffffffffffffffffffffffffffffffffffff16815260200190815260200160002060008473ffffffffffffffffffffffffffffffffffffffff1673ffffffffffffffffffffffffffffffffffffffff16815260200190815260200160002060006101000a81548160ff0219169083151502179055508173ffffffffffffffffffffffffffffffffffffffff168373ffffffffffffffffffffffffffffffffffffffff167f17307eab39ab6107e8899845ad3d59bd9653f200f220920489ca2b5937696c3183604051611af69190612a9c565b60405180910390a3505050565b611b0e84848461164b565b611b1a84848484611d71565b611b59576040517f08c379a0000000000000000000000000000000000000000000000000000000008152600401611b5090612b19565b60405180910390fd5b50505050565b60606000821415611ba7576040518060400160405280600181526020017f30000000000000000000000000000000000000000000000000000000000000008152509050611d07565b600082905060005b60008214611bd9578080611bc29061308d565b915050600a82611bd29190612ea3565b9150611baf565b60008167ffffffffffffffff811115611c1b577f4e487b7100000000000000000000000000000000000000000000000000000000600052604160045260246000fd5b6040519080825280601f01601f191660200182016040528015611c4d5781602001600182028036833780820191505090505b5090505b60008514611d0057600182611c669190612f2e565b9150600a85611c7591906130d6565b6030611c819190612e4d565b60f81b818381518110611cbd577f4e487b7100000000000000000000000000000000000000000000000000000000600052603260045260246000fd5b60200101907effffffffffffffffffffffffffffffffffffffffffffffffffffffffffffff1916908160001a905350600a85611cf99190612ea3565b9450611c51565b8093505050505b919050565b505050565b505050565b611d208383611f08565b611d2d6000848484611d71565b611d6c576040517f08c379a0000000000000000000000000000000000000000000000000000000008152600401611d6390612b19565b60405180910390fd5b505050565b6000611d928473ffffffffffffffffffffffffffffffffffffffff166120e2565b15611efb578373ffffffffffffffffffffffffffffffffffffffff1663150b7a02611dbb6114ac565b8786866040518563ffffffff1660e01b8152600401611ddd9493929190612a50565b602060405180830381600087803b158015611df757600080fd5b505af1925050508015611e2857506040513d601f19601f82011682018060405250810190611e2591906124bc565b60015b611eab573d8060008114611e58576040519150601f19603f3d011682016040523d82523d6000602084013e611e5d565b606091505b50600081511415611ea3576040517f08c379a0000000000000000000000000000000000000000000000000000000008152600401611e9a90612b19565b60405180910390fd5b805181602001fd5b63150b7a0260e01b7bffffffffffffffffffffffffffffffffffffffffffffffffffffffff1916817bffffffffffffffffffffffffffffffffffffffffffffffffffffffff191614915050611f00565b600190505b949350505050565b600073ffffffffffffffffffffffffffffffffffffffff168273ffffffffffffffffffffffffffffffffffffffff161415611f78576040517f08c379a0000000000000000000000000000000000000000000000000000000008152600401611f6f90612c99565b60405180910390fd5b611f8181611440565b15611fc1576040517f08c379a0000000000000000000000000000000000000000000000000000000008152600401611fb890612b99565b60405180910390fd5b611fcd60008383611d0c565b6001600360008473ffffffffffffffffffffffffffffffffffffffff1673ffffffffffffffffffffffffffffffffffffffff168152602001908152602001600020600082825461201d9190612e4d565b92505081905550816002600083815260200190815260200160002060006101000a81548173ffffffffffffffffffffffffffffffffffffffff021916908373ffffffffffffffffffffffffffffffffffffffff160217905550808273ffffffffffffffffffffffffffffffffffffffff16600073ffffffffffffffffffffffffffffffffffffffff167fddf252ad1be2c89b69c2b068fc378daa952ba7f163c4a11628f55a4df523b3ef60405160405180910390a46120de60008383611d11565b5050565b6000808273ffffffffffffffffffffffffffffffffffffffff163b119050919050565b8280546121119061302a565b90600052602060002090601f016020900481019282612133576000855561217a565b82601f1061214c57803560ff191683800117855561217a565b8280016001018555821561217a579182015b8281111561217957823582559160200191906001019061215e565b5b509050612187919061218b565b5090565b5b808211156121a457600081600090555060010161218c565b5090565b60006121bb6121b684612db9565b612d94565b9050828152602081018484840111156121d357600080fd5b6121de848285612fe8565b509392505050565b6000813590506121f5816136ff565b92915050565b60008135905061220a81613716565b92915050565b60008135905061221f8161372d565b92915050565b6000815190506122348161372d565b92915050565b600082601f83011261224b57600080fd5b813561225b8482602086016121a8565b91505092915050565b60008083601f84011261227657600080fd5b8235905067ffffffffffffffff81111561228f57600080fd5b6020830191508360018202830111156122a757600080fd5b9250929050565b6000813590506122bd81613744565b92915050565b6000602082840312156122d557600080fd5b60006122e3848285016121e6565b91505092915050565b600080604083850312156122ff57600080fd5b600061230d858286016121e6565b925050602061231e858286016121e6565b9150509250929050565b60008060006060848603121561233d57600080fd5b600061234b868287016121e6565b935050602061235c868287016121e6565b925050604061236d868287016122ae565b9150509250925092565b6000806000806080858703121561238d57600080fd5b600061239b878288016121e6565b94505060206123ac878288016121e6565b93505060406123bd878288016122ae565b925050606085013567ffffffffffffffff8111156123da57600080fd5b6123e68782880161223a565b91505092959194509250565b6000806040838503121561240557600080fd5b6000612413858286016121e6565b9250506020612424858286016121fb565b9150509250929050565b6000806040838503121561244157600080fd5b600061244f858286016121e6565b9250506020612460858286016122ae565b9150509250929050565b60006020828403121561247c57600080fd5b600061248a848285016121fb565b91505092915050565b6000602082840312156124a557600080fd5b60006124b384828501612210565b91505092915050565b6000602082840312156124ce57600080fd5b60006124dc84828501612225565b91505092915050565b600080602083850312156124f857600080fd5b600083013567ffffffffffffffff81111561251257600080fd5b61251e85828601612264565b92509250509250929050565b60006020828403121561253c57600080fd5b600061254a848285016122ae565b91505092915050565b61255c81612f74565b82525050565b61256b81612f62565b82525050565b61257a81612f86565b82525050565b600061258b82612dff565b6125958185612e15565b93506125a5818560208601612ff7565b6125ae816131c3565b840191505092915050565b60006125c482612e0a565b6125ce8185612e31565b93506125de818560208601612ff7565b6125e7816131c3565b840191505092915050565b60006125fd82612e0a565b6126078185612e42565b9350612617818560208601612ff7565b80840191505092915050565b600081546126308161302a565b61263a8186612e42565b94506001821660008114612655576001811461266657612699565b60ff19831686528186019350612699565b61266f85612dea565b60005b8381101561269157815481890152600182019150602081019050612672565b838801955050505b50505092915050565b60006126af601083612e31565b91506126ba826131d4565b602082019050919050565b60006126d2600f83612e31565b91506126dd826131fd565b602082019050919050565b60006126f5603283612e31565b915061270082613226565b604082019050919050565b6000612718601383612e31565b915061272382613275565b602082019050919050565b600061273b602683612e31565b91506127468261329e565b604082019050919050565b600061275e602583612e31565b9150612769826132ed565b604082019050919050565b6000612781601c83612e31565b915061278c8261333c565b602082019050919050565b60006127a4602483612e31565b91506127af82613365565b604082019050919050565b60006127c7601983612e31565b91506127d2826133b4565b602082019050919050565b60006127ea602c83612e31565b91506127f5826133dd565b604082019050919050565b600061280d600883612e31565b91506128188261342c565b602082019050919050565b6000612830603883612e31565b915061283b82613455565b604082019050919050565b6000612853602a83612e31565b915061285e826134a4565b604082019050919050565b6000612876602983612e31565b9150612881826134f3565b604082019050919050565b6000612899602083612e31565b91506128a482613542565b602082019050919050565b60006128bc602c83612e31565b91506128c78261356b565b604082019050919050565b60006128df600583612e42565b91506128ea826135ba565b600582019050919050565b6000612902601183612e31565b915061290d826135e3565b602082019050919050565b6000612925602083612e31565b91506129308261360c565b602082019050919050565b6000612948601583612e31565b915061295382613635565b602082019050919050565b600061296b602183612e31565b91506129768261365e565b604082019050919050565b600061298e600083612e26565b9150612999826136ad565b600082019050919050565b60006129b1603183612e31565b91506129bc826136b0565b604082019050919050565b6129d081612fde565b82525050565b60006129e28285612623565b91506129ee82846125f2565b91506129f9826128d2565b91508190509392505050565b6000612a1082612981565b9150819050919050565b6000602082019050612a2f6000830184612562565b92915050565b6000602082019050612a4a6000830184612553565b92915050565b6000608082019050612a656000830187612562565b612a726020830186612562565b612a7f60408301856129c7565b8181036060830152612a918184612580565b905095945050505050565b6000602082019050612ab16000830184612571565b92915050565b60006020820190508181036000830152612ad181846125b9565b905092915050565b60006020820190508181036000830152612af2816126a2565b9050919050565b60006020820190508181036000830152612b12816126c5565b9050919050565b60006020820190508181036000830152612b32816126e8565b9050919050565b60006020820190508181036000830152612b528161270b565b9050919050565b60006020820190508181036000830152612b728161272e565b9050919050565b60006020820190508181036000830152612b9281612751565b9050919050565b60006020820190508181036000830152612bb281612774565b9050919050565b60006020820190508181036000830152612bd281612797565b9050919050565b60006020820190508181036000830152612bf2816127ba565b9050919050565b60006020820190508181036000830152612c12816127dd565b9050919050565b60006020820190508181036000830152612c3281612800565b9050919050565b60006020820190508181036000830152612c5281612823565b9050919050565b60006020820190508181036000830152612c7281612846565b9050919050565b60006020820190508181036000830152612c9281612869565b9050919050565b60006020820190508181036000830152612cb28161288c565b9050919050565b60006020820190508181036000830152612cd2816128af565b9050919050565b60006020820190508181036000830152612cf2816128f5565b9050919050565b60006020820190508181036000830152612d1281612918565b9050919050565b60006020820190508181036000830152612d328161293b565b9050919050565b60006020820190508181036000830152612d528161295e565b9050919050565b60006020820190508181036000830152612d72816129a4565b9050919050565b6000602082019050612d8e60008301846129c7565b92915050565b6000612d9e612daf565b9050612daa828261305c565b919050565b6000604051905090565b600067ffffffffffffffff821115612dd457612dd3613194565b5b612ddd826131c3565b9050602081019050919050565b60008190508160005260206000209050919050565b600081519050919050565b600081519050919050565b600082825260208201905092915050565b600081905092915050565b600082825260208201905092915050565b600081905092915050565b6000612e5882612fde565b9150612e6383612fde565b9250827fffffffffffffffffffffffffffffffffffffffffffffffffffffffffffffffff03821115612e9857612e97613107565b5b828201905092915050565b6000612eae82612fde565b9150612eb983612fde565b925082612ec957612ec8613136565b5b828204905092915050565b6000612edf82612fde565b9150612eea83612fde565b9250817fffffffffffffffffffffffffffffffffffffffffffffffffffffffffffffffff0483118215151615612f2357612f22613107565b5b828202905092915050565b6000612f3982612fde565b9150612f4483612fde565b925082821015612f5757612f56613107565b5b828203905092915050565b6000612f6d82612fbe565b9050919050565b6000612f7f82612fbe565b9050919050565b60008115159050919050565b60007fffffffff0000000000000000000000000000000000000000000000000000000082169050919050565b600073ffffffffffffffffffffffffffffffffffffffff82169050919050565b6000819050919050565b82818337600083830152505050565b60005b83811015613015578082015181840152602081019050612ffa565b83811115613024576000848401525b50505050565b6000600282049050600182168061304257607f821691505b6020821081141561305657613055613165565b5b50919050565b613065826131c3565b810181811067ffffffffffffffff8211171561308457613083613194565b5b80604052505050565b600061309882612fde565b91507fffffffffffffffffffffffffffffffffffffffffffffffffffffffffffffffff8214156130cb576130ca613107565b5b600182019050919050565b60006130e182612fde565b91506130ec83612fde565b9250826130fc576130fb613136565b5b828206905092915050565b7f4e487b7100000000000000000000000000000000000000000000000000000000600052601160045260246000fd5b7f4e487b7100000000000000000000000000000000000000000000000000000000600052601260045260246000fd5b7f4e487b7100000000000000000000000000000000000000000000000000000000600052602260045260246000fd5b7f4e487b7100000000000000000000000000000000000000000000000000000000600052604160045260246000fd5b6000601f19601f8301169050919050565b7f77726f6e67206d696e742076616c756500000000000000000000000000000000600082015250565b7f77686974647261206661696c6564210000000000000000000000000000000000600082015250565b7f4552433732313a207472616e7366657220746f206e6f6e20455243373231526560008201527f63656976657220696d706c656d656e7465720000000000000000000000000000602082015250565b7f6d696e74696e67206e6f7420656e61626c656400000000000000000000000000600082015250565b7f4f776e61626c653a206e6577206f776e657220697320746865207a65726f206160008201527f6464726573730000000000000000000000000000000000000000000000000000602082015250565b7f4552433732313a207472616e736665722066726f6d20696e636f72726563742060008201527f6f776e6572000000000000000000000000000000000000000000000000000000602082015250565b7f4552433732313a20746f6b656e20616c7265616479206d696e74656400000000600082015250565b7f4552433732313a207472616e7366657220746f20746865207a65726f2061646460008201527f7265737300000000000000000000000000000000000000000000000000000000602082015250565b7f4552433732313a20617070726f766520746f2063616c6c657200000000000000600082015250565b7f4552433732313a206f70657261746f7220717565727920666f72206e6f6e657860008201527f697374656e7420746f6b656e0000000000000000000000000000000000000000602082015250565b7f736f6c64206f7574000000000000000000000000000000000000000000000000600082015250565b7f4552433732313a20617070726f76652063616c6c6572206973206e6f74206f7760008201527f6e6572206e6f7220617070726f76656420666f7220616c6c0000000000000000602082015250565b7f4552433732313a2062616c616e636520717565727920666f7220746865207a6560008201527f726f206164647265737300000000000000000000000000000000000000000000602082015250565b7f4552433732313a206f776e657220717565727920666f72206e6f6e657869737460008201527f656e7420746f6b656e0000000000000000000000000000000000000000000000602082015250565b7f4552433732313a206d696e7420746f20746865207a65726f2061646472657373600082015250565b7f4552433732313a20617070726f76656420717565727920666f72206e6f6e657860008201527f697374656e7420746f6b656e0000000000000000000000000000000000000000602082015250565b7f2e6a736f6e000000000000000000000000000000000000000000000000000000600082015250565b7f657863656564206d61782077616c6c6574000000000000000000000000000000600082015250565b7f4f776e61626c653a2063616c6c6572206973206e6f7420746865206f776e6572600082015250565b7f546f6b656e20646f7365206e6f74206578697374210000000000000000000000600082015250565b7f4552433732313a20617070726f76616c20746f2063757272656e74206f776e6560008201527f7200000000000000000000000000000000000000000000000000000000000000602082015250565b50565b7f4552433732313a207472616e736665722063616c6c6572206973206e6f74206f60008201527f776e6572206e6f7220617070726f766564000000000000000000000000000000602082015250565b61370881612f62565b811461371357600080fd5b50565b61371f81612f86565b811461372a57600080fd5b50565b61373681612f92565b811461374157600080fd5b50565b61374d81612fde565b811461375857600080fd5b5056fea26469706673582212201fbcfdc6f64adaa6d77dc8b99d16b0c95ca6957b147692cdd5134a92605bdcd164736f6c63430008040033",
  "linkReferences": {},
  "deployedLinkReferences": {}
}